:100000000EC020C01FC01EC01DC01CC01BC01AC017
:1000100019C018C017C016C015C014C013C01124D1
:100020001FBECFE5D1E0DEBFCDBF10E0A0E6B0E05F
:10003000E2E2F5E002C005900D92AC36B107D9F7C7
:1000400059D06DC2DDCF98E03CE124E138BB00001F
:1000500087FF06C000000000000000000000000054
:1000600028BB880F0000000000000000915071F7CD
:1000700008951F93CF93DF9300D0CDB7DEB7182F2D
:10008000862F2A834983DFDF812FDDDF4981842F9B
:10009000DADF2A81822F0F900F90DF91CF911F918D
:1000A000D2CF982F853550F463E015D1482F892F92
:1000B0006DEF11D120E060E081501BC08A3A68F4F6
:1000C0009555892F6DEF07D14FEF480F892F63E0CA
:1000D00002D120E0682F80E00CC09A5A892F6DEF82
:1000E000FAD03FEF380F892F63E0F5D020E040E0F1
:1000F000632FBFCFCF93DF93CDB7DEB7A5970FB6F2
:10010000F894DEBF0FBECDBF88E087BB84E188BB1B
:1001100087E0E4E6F0E0DE015F9601900D928A95BB
:10012000E1F77E012FE1E20EF11C27E0C22E33E061
:10013000D32EB2995AC0B49949C08E010F5F1F4F98
:10014000B12C1ED16C2DD0D0F701E90FF11D8081AB
:100150008B15B9F3F80181938F01EE15FF0511F4AA
:100160000AE52BC0B82EEDCFB49930C01CE020E0DA
:1001700040E060E080E07DDF1150C9F7812F6D2DF8
:10018000B3D091111DC0812F602FAED0892F6D2D5E
:10019000ABD0E1E0F0E0EC0FFD1FE80FF11D808136
:1001A00080DF1F5F1A3551F7FFEF20E782E0F15043
:1001B00020408040E1F700C00000B29BD5CF06C0D0
:1001C00020E040E060E080E054DFEBCF16E620E086
:1001D00040E060E080E04DDF1150C9F7EFE9FFE05B
:1001E0003197F1F700C00000A4CF10E000E0011744
:1001F00028F428E740E060E58FEF04C020E040E00D
:1002000060E080E036DF0F5F0C3089F796E0B92EB2
:1002100000E0011728F428E740E060E58FEF04C014
:1002200020E040E060E080E024DF0F5F0F3089F7DE
:10023000BA9471F7FFEF20E782E0F1502040804050
:10024000E1F700C000001F5F1F3081F6B29902C0C5
:1002500010E035C016E628E740E060E58FEF09DFE3
:100260001150C9F7EFE3FCE93197F1F700C0000046
:10027000EDCF101730F528E740E060E58FEFF9DEAD
:100280000F5F0C30B1F786E0B82E00E01017F0F4E5
:1002900028E740E060E58FEFECDE0F5F0F30B1F74D
:1002A000BA9499F7FFEF20E782E0F15020408040B8
:1002B000E1F700C000001F5F1F3009F43ACF00E0F3
:1002C000D8CF20E040E060E080E0D9CF20E040E0FF
:1002D00060E080E0E1CF002480FD060E660F11F0A3
:1002E0008695D1F7802D0895991B79E004C0991F58
:1002F000961708F0961B881F7A95C9F78095089580
:10030000A0E0B0E0E5E8F1E089C0EC016881798126
:100310008A819B81611571058105910521F464E253
:1003200079ED8BE597E02DE133EF41E050E037D0F8
:1003300049015A0127EA31E440E050E04CD069011C
:100340007A01C501B4012CEE34EF4FEF5FEF43D0DB
:1003500089019A01D701C601800F911FA21FB31F07
:10036000B7FF03C00197A109B04888839983AA8386
:10037000BB839F77CDB7DEB7ECE06CC0C1DF0895DB
:1003800080E690E0BDDF0895A0E0B0E080936000DB
:1003900090936100A0936200B09363000895052ECE
:1003A00097FB16F400940FD057FD05D068D007FCDA
:1003B00002D046F408C050954095309521953F4FA6
:1003C0004F4F5F4F089590958095709561957F4F41
:1003D0008F4F9F4F089568940013E894A0E0B0E019
:1003E000E3EFF1E01DC0EFEFE7F959016A015E2389
:1003F000550FEE08FE2C87019B01AC019E23990F3F
:10040000660B762FCB015DD0CDB7DEB7EAE024C016
:100410002F923F924F925F926F927F928F929F9214
:10042000AF92BF92CF92DF92EF92FF920F931F9302
:10043000CF93DF93CDB7DEB7CA1BDB0B0FB6F894B3
:10044000DEBF0FBECDBF09942A88398848885F84F3
:100450006E847D848C849B84AA84B984C884DF8064
:10046000EE80FD800C811B81AA81B981CE0FD11D48
:100470000FB6F894DEBF0FBECDBFED010895A1E227
:100480001A2EAA1BBB1BFD010DC0AA1FBB1FEE1F0E
:10049000FF1FA217B307E407F50720F0A21BB30B59
:1004A000E40BF50B661F771F881F991F1A9469F7D5
:1004B00060957095809590959B01AC01BD01CF0131
:1004C0000895DF93CF939F92A0E49A2E0024D00149
:1004D000E001F00116950795F794E794D794C79437
:1004E000B794A79448F41068A20FB31FC41FD51F78
:1004F000E61FF71F081E191E220F331F441F551F2A
:10050000661F771F881F991F9A9421F79D01AE01DE
:10051000BF01C00111249F90CF91DF910895F894FD
:02052000FFCF0B
:0C05220001000000000064B9B9DCF20028
:00000001FF
